:100000000C94EB040C9400000C9400000C942E163D
:100010000C942E160C942E160C9400000C940000D8
:100020000C9400000C9400000C9400000C943B16FF
:100030000C9400000C9400000C9400000C94000040
:100040000C9400000C9400000C94CC150C9400004F
:100050000C9400000C9400000C9400000C94000020
:100060000C9400000C940000FAF4EADAC5AB8E722E
:10007000594433261D16110D0A001027E8036400A9
:100080000A00010000100001100001000001000042
:100090000100000000000000256400313030002C19
:1000A000256400646961676E6F73746963007B2205
:1000B0006D63755F76657273696F6E223A226D3378
:1000C000323870222C227063625F76657273696FBA
:1000D0006E223A313033312C2266775F7665727347
:1000E000696F6E223A313225642C226D73675F6529
:1000F00072726F7273223A302C227265626F6F7463
:100100005F6572726F7273223A307D0A0070635FAE
:1001100073687574646F776E0073687574646F7755
:100120006E20504300736572766963655F6D6F641E
:10013000650073657276696365206D6F6465204F35
:100140004E200A0073657276696365206D6F646581
:10015000204F464620200A0070776D5F66726571F9
:100160000070776D206672657175656E6379203DEC
:10017000202564206B687A200A0073686F775F63BC
:100180006F6E6669670066775F76657273696F6E1A
:100190003D31312564200A00504944207069645F74
:1001A0006B703D2564207069645F6B643D2564203D
:1001B0007069645F6B693D2564207069645F747366
:1001C0007465703D2564200A0066616E5F63686532
:1001D000636B5F74696D653D2564200A0070776DFF
:1001E0005F6672657175656E63793D2564200A00EE
:1001F00070776D5F696E766572743D2564200A00C4
:100200006D696E5F70776D5F73706565643D2564C1
:10021000200A006D61785F6175746F66616E5F7052
:10022000776D3D2569200A0073746172745F707781
:100230006D5F73706565643D2564200A00776474A2
:100240005F707573685F74696D653D2564200A0091
:100250007764745F776169745F74696D653D256467
:10026000200A00746865726D6F5F6F6666736574EF
:10027000313D2564200A00746865726D6F5F6F669A
:1002800066736574323D2564200A006C65645F62A4
:100290006C696E6B3D2564200A004F534343414C0B
:1002A00020646966663D2564204F534343414C3DBD
:1002B0002564200A0066616E5F6E756D6265723D31
:1002C0002564200A007764745F74657374006D613F
:1002D0006B65206120574454207465737400666117
:1002E0006E5F636865636B5F74696D6500736574E9
:1002F0002066616E5F636865636B5F74696D653D01
:100300002564200A0063616C696272617465006330
:10031000616C6962726174655F636F6E6669726D4C
:1003200000434F4E4649524D454420212121204F44
:10033000534343414C20646966663D2564204F5316
:100340004343414C3D2564200A0057524F4E4720FD
:10035000434F4E4649524D4154494F4E2C204F5326
:100360004343414C2041524520444946464552456D
:100370004E5421212100736574204F534343414C57
:1003800020646966663D2564204F534343414C3DDC
:100390002564200A00434F4E4649524D2057495488
:1003A000482043414C4942524154455F434F4E46D9
:1003B00049524D3D5820434F4D4D414E44205749E1
:1003C0005448494E203330205345432021212100F9
:1003D00064656661756C740073657474696E6773C7
:1003E000207761732073657420746F206465666183
:1003F000756C7420200A0073686F775F7265616C9A
:100400005F73706565640073706565642073686F01
:1004100077206D6F646520686173206368616E6723
:1004200065642C2073686F7720757365722064652E
:1004300066696E6564207370656564200A00737078
:100440006565642073686F77206D6F6465206861EF
:1004500073206368616E6765642C2073686F772012
:100460007265616C207370656564200A0070776D39
:100470005F696E76657274007573696E6720696E68
:100480007665727465642070776D202875736520B9
:1004900074686973206F7074696F6E207768656E19
:1004A00020796F75722066616E7320616374756167
:1004B0006C6C7920776F726B73206F6E206D617832
:1004C000207370656564207768656E20796F75208C
:1004D0007365742030252073706565642920200AB7
:1004E000007573696E67206E6F6E2D696E7665722A
:1004F0007465642070776D200A006C65645F626CBF
:10050000696E6B00626C696E6B696E67204C454466
:10051000202864656661756C7429200A0074757200
:100520006E696E67206F6666204C4544200A007431
:100530006865726D6F5F6F666673657431007365B1
:100540007420746865726D6F5F6F66667365743171
:100550003D2564200A00746865726D6F5F6F666682
:10056000736574320073657420746865726D6F5FB3
:100570006F6666736574323D2564200A0074686591
:10058000726D6F5F73656E736F7200646F206E6F54
:10059000742073686F7720746865726D6F73656E11
:1005A000736F7273200A0073686F77206F6E6C79B7
:1005B000206F6E626F61726420746865726D6F7314
:1005C000656E736F72200A0073686F7720626F74B4
:1005D00068206F6E626F61726420616E642065785E
:1005E0007465726E616C20746865726D6F73656E90
:1005F000736F7273200A0073746172745F70776D29
:100600005F7370656564007365742070776D207327
:1006100070656564206166746572206120504320B6
:10062000626F6F742073746172745F70776D5F7343
:10063000706565643D2564200A006D61785F6175B1
:10064000746F66616E5F70776D00736574206D61A5
:1006500078206175746F66616E20737065656420C3
:100660006D61785F6175746F66616E5F70776D3D07
:100670002564200A006D696E5F70776D5F73706529
:10068000656400736574206D696E2066616E207309
:1006900070656564206D696E5F70776D5F737065FE
:1006A00065643D2564200A007764745F776169742E
:1006B0005F74696D65007365742074696D65206190
:1006C000667465722050432073687574646F776E2A
:1006D00020616E64206265666F72652050432077EA
:1006E000616B65207764745F776169745F74696DAD
:1006F000653D2564200A0066616E5F6E756D6265FA
:100700007200736574206E756D626572206F66206D
:1007100066616E732066616E5F6E756D6265723DB7
:100720002564200A007764745F707573685F74696C
:100730006D650073657420504F5745525F42544EAB
:1007400020707573682074696D65207764745F70BC
:100750007573685F74696D653D2564200A00736573
:1007600072766963655F74696D6500736574207383
:100770006572766963655F74696D653D2564200AFD
:10078000007069645F007069645F6B700070696419
:100790005F6B64007069645F6B69007069645F74AB
:1007A00073746570007365742050494420636F65ED
:1007B000666673207069645F6B703D2564207069A4
:1007C000645F6B643D2564207069645F6B693D25DF
:1007D00064207069645F74696D653D2564200A005A
:1007E00066616E5F636865636B006770755F7465F3
:1007F0006D70007461726765745F74656D70006D13
:10080000616E75616C5F66616E5F737065656400D3
:1008100066616E5F6D6F6465007761746368646FB5
:10082000670077645F72657365745F696E74657283
:1008300076616C006770755F6D656D0074617267DD
:1008400065745F6D656D006770755F6D656D223AEB
:100850006E756C6C0073746172745F66616E006DAE
:1008600061785F66616E006D696E5F66616E004FF4
:10087000534343414C2069732073657420746F2087
:1008800064656661756C74200A004F435230423DC6
:100890002564204F43523041286D6178293D2564FD
:1008A0002066616E5F70776D3D2564206175746FA1
:1008B0005F6D6F64653D2564206D696E5F743D25D5
:1008C00064206D61785F743D256420746172675F98
:1008D000743D25642070776D5F6164643D256420FC
:1008E000636E743D2564206F736363616C3D2564A2
:1008F000200A006D696E5F6D656D5F743D25642033
:100900006D61785F6D656D5F743D25642074617203
:10091000675F6D656D5F743D2564200A0025730A6D
:100920000046313D25642046323D25642046333D56
:1009300025642046343D25642046353D2564204607
:10094000363D25642046373D25642046383D2564E4
:100950002046393D2564204631303D25642046310E
:10096000313D2564204631323D2564200A004D3159
:100970003D2564204D323D2564204D333D256420C6
:100980004D343D2564204D353D2564204D363D25B3
:1009900064204D373D2564204D383D2564204D3978
:1009A0003D2564204D31303D2564204D31313D25BC
:1009B00064204D31323D2564200A000001002D4E97
:1009C000414E00494E4600000C0003008C0001001F
:1009D000B905BC090000F894EE27EFBBF1E0F5BFC4
:1009E000E5BF8DE0A2E0BB27ED938A95E9F780E0B3
:1009F00098E0A0E0B1E0ED930197E9F7E8ECF9E0C9
:100A000085919591009761F0A591B591059015900C
:100A1000BF01F00105900D920197E1F7FB01F0CFC6
:100A2000E0E0EEBBEFEFEDBFE8E0EEBFC0E0D3E00B
:100A30000C94DD1C0E943D205A2F10E020E030E095
:100A400000E0E52FE066E0937C0088EC90E0019701
:100A5000F1F7E0917A00E064E0937A00E0917A00A7
:100A6000E071E1F3E0917A00E061E0937A001091A7
:100A70007900153F10F0EDE93EC01B3010F4E3E6BD
:100A80003AC0E02FF0E0E859FF4FE4911E1710F450
:100A90000F5FF7CFE02FF0E03197CF01BF01AAE061
:100AA000B0E00E947020B897FF93EF93FB01E859E4
:100AB000FF4FA491B0E0E12FF0E0AE1BBF0BEAE0E6
:100AC000F0E00E947020BF01FC01E859FF4FA491A3
:100AD000B0E0E02FF0E0E859FF4FE491F0E00E9431
:100AE000A820EA1BFB0BDB010E948820AF91BF917D
:100AF000EA0FFB1F9F010E94442026960895BA9397
:100B0000AA930E943D2000E010E020E030E040E0A9
:100B100050E040E050E0E885F9854E175F07D8F5D2
:100B200001E010E020E030E0F901AA85BB85EA0F82
:100B3000FB1FE491E030E1F0FA01AC85BD85EA0FDE
:100B4000FB1FE20FF31F0080F901AA85BB85EA0FA6
:100B5000FB1FE491E01531F4F901EA0FFB1FE4916A
:100B6000E03019F400E010E003C02F5F3F4FDCCF0E
:100B7000E1E0F0E0E017F10759F4AE81BF81119791
:100B800021F4F901E40FF51F08C0E1E0F0E005C031
:100B90004F5F5F4FC0CFE0E0F0E00E9444202E9610
:100BA00008950E943F2010E000E020E030E0ABE735
:100BB0000E94131EA2E20E94131EA3E60E94131EAF
:100BC000A1E60E94131EA3E70E94131EA5E60E9441
:100BD000131EA6E60E94131EA1E60E94131EAEE697
:100BE0000E94131EA2E20E94131EAAE30E94131E7B
:100BF000ABE50E94131E11E0A9E3B0E00E94B32010
:100C0000E11708F46BC0E12FA6E0B0E0F0E0EE0FD2
:100C1000FF1FAE0FBF1F0E94AF203B9708F45CC0C0
:100C2000E12FAFE9B5E0F0E0EE0FFF1FAE0FBF1F01
:100C3000ED91FD91A4E6B0E00E9468200F01E12F44
:100C4000A6E0B0E0F0E0EE0FFF1FAE0FBF1F0E9466
:100C5000AF20D0010E9475209F012436E0E03E07BE
:100C600020F5ACE2B0E00E94B320E13041F4E8E9C5
:100C7000F0E0FA93EA93F901662777270FC0E8E9D5
:100C8000F0E0FA93EA93E8B5A4E6EA9FF001DF0109
:100C9000E7B5F0E00E9488200E9459200E94A3201E
:100CA00084E00E94B41F269608C0EBE9F0E0FA93B6
:100CB000EA9380E00E94B41F2296A5E0B0E00E9473
:100CC000B320F0E03197A02FB0E0AE17BF0724F4B7
:100CD000ACE20E94131E0F5F1F5F8ECFADE50E9436
:100CE000131EA1E3B0E00E94B320E13008F47FC0FE
:100CF000ACE20E94131EA2E20E94131EA4E70E940F
:100D0000131EA8E60E94131EA5E60E94131EA2E76A
:100D10000E94131EADE60E94131EAFE60E94131E32
:100D2000A3E70E94131EA5E60E94131EAEE60E94D2
:100D3000131EA3E70E94131EAFE60E94131EA2E734
:100D40000E94131EA3E70E94131EA2E20E94131E1C
:100D5000AAE30E94131EABE50E94131EE8E9F0E02F
:100D6000FA93EA93A0E066DEF0E0E7FDFFEF0F0103
:100D7000A2E3B0E00E94B320F0E0E7FDFFEFE00D5A
:100D8000F11D0E9459200E94A32084E00E94B41FFC
:100D90002696A1E04FDEAE2FECEE0E9463200E2ED1
:100DA000A1E3B0E00E94B320A2E00E945E20E02117
:100DB000D9F0EFE9F0E0FA93EA93A1E03BDEF0E04E
:100DC000E7FDFFEF0F01A3E3B0E00E94B320F0E0E6
:100DD000E7FDFFEFE00DF11D0E9459200E94A320C6
:100DE00084E00E94B41F2696ADE50E94131EADE775
:100DF0000E94131EAAE00E94131E0E944620249601
:100E000008952297E0E0E883E9830E943D2000E016
:100E100010E030E020E050E040E0E5E9F3E0FA9354
:100E2000EA93E3EAF0E0FA93EA93E0919003F09119
:100E30009103FA93EA93A0E0B0E061DE0E94D8202B
:100E400010F4303009F012C031E0EEEAF0E0FA932D
:100E5000EA93A8E2B0E00E94B320FF276627772735
:100E60000E94A32084E00E94B41F2696E5E9F3E0E7
:100E7000FA93EA93EDE0F1E0FA93EA93E0919003BC
:100E8000F0919103FA93EA93A0E0B0E038DE0E947B
:100E9000D82010F4303009F008C0A9E1B1E00E9478
:100EA0001D1EE0E0E0938C0531E0E5E9F3E0FA9304
:100EB000EA93E5E2F1E0FA93EA93E0919003F0918E
:100EC0009103FA93EA93A0E0B0E019DE0E94D820E3
:100ED00010F4303009F06CC0E5E9F3E0FF93EF93D4
:100EE000E5E9F3E0FA93EA93E5E2F1E0FA93EA93B5
:100EF000E0919003F0919103FA93EA93A1E0B0E0BE
:100F0000FEDDAF91BF91AE0FBF1F11960E94D91F9A
:100F10000E94D82024F5A2E3B1E00E941D1EE5E95D
:100F2000F3E0FF93EF93E5E9F3E0FA93EA93E5E268
:100F3000F1E0FA93EA93E0919003F0919103FA9330
:100F4000EA93A1E0B0E0DBDDAF91BF91AE0FBF1F30
:100F500011960E94D91FA9E2B0E00E94C720E5E9DE
:100F6000F3E0FF93EF93E5E9F3E0FA93EA93E5E228
:100F7000F1E0FA93EA93E0919003F0919103FA93F0
:100F8000EA93A1E0B0E0BBDDAF91BF91AE0FBF1F10
:100F900011960E94D91F309749F4A4E4B1E00E9451
:100FA0001D1EA9E2B0E0E0E00E94C720332431E03A
:100FB000E5E9F3E0FA93EA93E8E5F1E0FA93EA93DE
:100FC000E0919003F0919103FA93EA93A0E0B0E0EE
:100FD00096DD0E94D82010F4303009F054C0E5E9C5
:100FE000F3E0FF93EF93E5E9F3E0FA93EA93E8E5A2
:100FF000F1E0FA93EA93E0919003F0919103FA9370
:10100000EA93A1E0B0E07BDDAF91BF91AE0FBF1FCF
:1010100011960E94D91FA6E3B0E00E94C720A6E364
:10102000B0E00E94B320E03128F4A6E3B0E0E0E1B4
:101030000E94C720A6E3B0E00E94B320EF3128F061
:10104000A6E3B0E0EEE10E94C720E1E6F1E0FA930A
:10105000EA93A6E3B0E00E94B320FF276627772734
:101060000E94A32084E00E94B41F2696A6E3B0E06D
:101070000E94B320F0E0A0EABFE00E948820E7BD14
:10108000E0E0E6BD31E0E5E9F3E0FA93EA93EAE770
:10109000F1E0FA93EA93E0919003F0919103FA93CF
:1010A000EA93A0E0B0E02BDD0E94D82010F43030AD
:1010B00009F01AC131E0E6E8F1E0FA93EA93A8E218
:1010C000B0E00E94B320FF27662777270E94A32065
:1010D00084E00E94B41F2696E8E9F1E0FA93EA93CF
:1010E000A0E2B0E00E94AF200E9459200E94A320FD
:1010F000A2E2B0E00E94AF200E9459200E94A320EB
:10110000A4E2B0E00E94AF200E9459200E94A320D8
:10111000A6E2B0E00E94B320FF27662777270E944F
:10112000A32080E10E94B41F6296E9ECF1E0FA93FB
:10113000EA93A7E2B0E00E94B320FF276627772753
:101140000E94A32084E00E94B41F2696EDEDF1E0FA
:10115000FA93EA93A6E3B0E00E94B320FF27662744
:1011600077270E94A32084E00E94B41F2696E0EF18
:10117000F1E0FA93EA93A4E3B0E00E94B3200E9466
:1011800053200E94A32084E00E94B41F2696E0E032
:10119000F2E0FA93EA93ADE2B0E00E94B320FF27B9
:1011A000662777270E94A32084E00E94B41F26961A
:1011B000E3E1F2E0FA93EA93ABE2B0E00E94B320FD
:1011C000FF27662777270E94A32084E00E94B41F90
:1011D0002696E8E2F2E0FA93EA93AEE2B0E00E94EB
:1011E000B320FF27662777270E94A32084E00E9470
:1011F000B41F2696EDE3F2E0FA93EA93AFE2B0E093
:101200000E94B320FF27662777270E94A32084E04F
:101210000E94B41F2696E0E5F2E0FA93EA93A0E379
:10122000B0E00E94B320FF27662777270E94A32003
:1012300084E00E94B41F2696E3E6F2E0FA93EA9374
:10124000A2E3B0E00E94B3200E9453200E94A3209A
:1012500084E00E94B41F2696E7E7F2E0FA93EA934F
:10126000A3E3B0E00E94B3200E9453200E94A32079
:1012700084E00E94B41F2696EBE8F2E0FA93EA932A
:10128000A5E3B0E00E94B3200E9453200E94A32057
:1012900084E00E94B41F2696EAE9F2E0FA93EA930A
:1012A000A7E3B0E00E94B3200E9453200E94A32035
:1012B000E0916600FF27662777270E94A32088E039
:1012C0000E94B41F2A96E5EBF2E0FA93EA93A9E3B1
:1012D000B0E00E94B320FF27662777270E94A32053
:1012E00084E00E94B41F2696E5E9F3E0FA93EA93BE
:1012F000E5ECF2E0FA93EA93E0919003F091910328
:10130000FA93EA93A0E0B0E0FADB0E94D82010F450
:10131000303009F006C0442431E0AEECB2E00E9467
:101320001D1EE5E9F3E0FA93EA93EEEDF2E0FA939D
:10133000EA93E0919003F0919103FA93EA93A0E08D
:10134000B0E0DDDB0E94D82010F4303009F032C06C
:10135000E5E9F3E0FF93EF93E5E9F3E0FA93EA932D
:10136000EEEDF2E0FA93EA93E0919003F0919103AD
:10137000FA93EA93A1E0B0E0C2DBAF91BF91AE0F68
:10138000BF1F11960E94D91FA7E2B0E00E94C7209C
:1013900031E0EDEEF2E0FA93EA93A7E2B0E00E94CA
:1013A000B320FF27662777270E94A32084E00E94AE
:1013B000B41F2696E5E9F3E0FA93EA93E5E0F3E05B
:1013C000FA93EA93E0919003F0919103FA93EA93F0
:1013D000A0E0B0E094DB0E94D82010F4303009F097
:1013E000A2C0E5E9F3E0FA93EA93EFE0F3E0FA93C1
:1013F000EA93E0919003F0919103FA93EA93A0E0CD
:10140000B0E07DDB0E94D82010F4303009F048C0F5
:10141000E5E9F3E0FF93EF93E5E9F3E0FA93EA936C
:10142000EFE0F3E0FA93EA93E0919003F0919103F7
:10143000FA93EA93A1E0B0E062DBAF91BF91AE0F07
:10144000BF1F11960E94D91FA8E3B0E00E94C720D9
:10145000A7E3B0E00E94B3200E2EA8E3B0E00E9404
:10146000B320E015C1F4E1E2F3E0FA93EA93A7E3D5
:10147000B0E00E94B3200E9453200E94A320E0917C
:101480006600FF27662777270E94A32088E00E9436
:10149000B41F2A9604C0AAE4B3E00E941D1E42C0F5
:1014A000E5E9F3E0FF93EF93E5E9F3E0FA93EA93DC
:1014B000E5E0F3E0FA93EA93E0919003F091910371
:1014C000FA93EA93A1E0B0E01ADBAF91BF91AE0FBF
:1014D000BF1F11960E94D91FA7E3B0E00E94C7204A
:1014E000A7E3B0E00E94B320E80DE0936600E6E7D2
:1014F000F3E0FA93EA93A7E3B0E00E94B3200E94DE
:1015000053200E94A320E0916600FF2766277727DB
:101510000E94A32088E00E94B41F2A96A5E9B3E0A8
:101520000E941D1E31E0E5E9F3E0FA93EA93E0ED55
:10153000F3E0FA93EA93E0919003F0919103FA9328
:10154000EA93A0E0B0E0DBDA0E94D82010F430305B
:1015500009F074C0A0E2B0E0E0E2F3E00E94BF2036
:10156000A2E2B0E0E8E7F0E00E94BF20A4E2B0E031
:10157000E4E6F0E00E94BF20A6E2B0E0EAE00E94CC
:10158000C720A7E2B0E0EEE10E94C720A9E2B0E0E8
:10159000E3E00E94C720AAE2B0E0E4E00E94C72096
:1015A000ACE2B0E0E1E00E94C720ADE2B0E0EFE0E5
:1015B0000E94C720AEE2B0E0EEE10E94C720AFE299
:1015C000B0E0E5E00E94C720A0E3B0E0EEE10E94B9
:1015D000C720ADE2B0E0EAE00E94C720AEE2B0E092
:1015E000E4E10E94C720A1E3B0E0E1E00E94C7204F
:1015F000A2E3B0E0E0E00E94C720A3E3B0E00E94D5
:10160000C720A4E3B0E00E94C720A5E3B0E0E1E07A
:101610000E94C720A6E3B0E0E4E10E94C720ABE24D
:10162000B0E0E4E60E94C720A9E3B0E0ECE00E944D
:10163000C720A8EDB3E00E941D1E31E0E5E9F3E00C
:10164000FA93EA93E7EFF3E0FA93EA93E0919003D9
:10165000F0919103FA93EA93A0E0B0E050DA0E948F
:10166000D82010F4303009F051C0E5E9F3E0FF93E1
:10167000EF93E5E9F3E0FA93EA93E7EFF3E0FA9307
:10168000EA93E0919003F0919103FA93EA93A1E039
:10169000B0E035DAAF91BF91AE0FBF1F11960E9437
:1016A000D91F309749F4A7E0B4E00E941D1EACE2B8
:1016B000B0E0E0E00E94C720E5E9F3E0FF93EF939C
:1016C000E5E9F3E0FA93EA93E7EFF3E0FA93EA93BC
:1016D000E0919003F0919103FA93EA93A1E0B0E0D6
:1016E0000EDAAF91BF91AE0FBF1F11960E94D91FA6
:1016F000E130A0E0FA0749F4AEE3B4E00E941D1E19
:10170000ACE2B0E0E1E00E94C72031E0E5E9F3E0BF
:10171000FA93EA93EDE6F4E0FA93EA93E09190030A
:10172000F0919103FA93EA93A0E0B0E0E8D90E9427
:10173000D82010F4303009F071C0E5E9F3E0FF93F0
:10174000EF93E5E9F3E0FA93EA93EDE6F4E0FA9338
:10175000EA93E0919003F0919103FA93EA93A1E068
:10176000B0E0CDD9AF91BF91AE0FBF1F11960E94CF
:10177000D91FE130A0E0FA07C9F4A8E7B4E00E945D
:101780001D1EA4E3B0E0E1E00E94C720E1E2E4BD59
:10179000E9E0E5BDE0E0E6BDA6E3B0E00E94B320ED
:1017A000F0E0A0EABFE00E948820E7BDE5E9F3E0B1
:1017B000FF93EF93E5E9F3E0FA93EA93EDE6F4E0C3
:1017C000FA93EA93E0919003F0919103FA93EA93EC
:1017D000A1E0B0E094D9AF91BF91AE0FBF1F1196B9
:1017E0000E94D91F3097C9F4A1EEB4E00E941D1EDB
:1017F000A4E3B0E0E0E00E94C720E1E3E4BDE9E05B
:10180000E5BDE0E0E6BDA6E3B0E00E94B320F0E075
:10181000A0EABFE00E948820E7BD31E0E5E9F3E0FF
:10182000FA93EA93EAEFF4E0FA93EA93E0919003F3
:10183000F0919103FA93EA93A0E0B0E060D90E949E
:10184000D82010F4303009F052C0E5E9F3E0FF93FE
:10185000EF93E5E9F3E0FA93EA93EAEFF4E0FA9321
:10186000EA93E0919003F0919103FA93EA93A1E057
:10187000B0E045D9AF91BF91AE0FBF1F11960E9446
:10188000D91FE130A0E0FA0749F4A4E0B5E00E94D6
:101890001D1EA5E3B0E0E1E00E94C720E5E9F3E00A
:1018A000FF93EF93E5E9F3E0FA93EA93EAEFF4E0CC
:1018B000FA93EA93E0919003F0919103FA93EA93FB
:1018C000A1E0B0E01CD9AF91BF91AE0FBF1F119640
:1018D0000E94D91F309751F4ADE1B5E00E941D1E62
:1018E000A5E3B0E0E0E00E94C7205E9831E0E5E9C2
:1018F000F3E0FA93EA93EFE2F5E0FA93EA93E091EA
:101900009003F0919103FA93EA93A0E0B0E0F7D846
:101910000E94D82010F4303009F031C0E5E9F3E03E
:10192000FF93EF93E5E9F3E0FA93EA93EFE2F5E052
:10193000FA93EA93E0919003F0919103FA93EA937A
:10194000A1E0B0E0DCD8AF91BF91AE0FBF1F119600
:101950000E94D91FA2E3B0E00E94C72031E0EEE36D
:10196000F5E0FA93EA93A2E3B0E00E94B3200E946C
:1019700053200E94A32084E00E94B41F2696E5E92C
:10198000F3E0FA93EA93E6E5F5E0FA93EA93E0915F
:101990009003F0919103FA93EA93A0E0B0E0AFD8FE
:1019A0000E94D82010F4303009F031C0E5E9F3E0AE
:1019B000FF93EF93E5E9F3E0FA93EA93E6E5F5E0C8
:1019C000FA93EA93E0919003F0919103FA93EA93EA
:1019D000A1E0B0E094D8AF91BF91AE0FBF1F1196B8
:1019E0000E94D91FA3E3B0E00E94C72031E0E5E6E2
:1019F000F5E0FA93EA93A3E3B0E00E94B3200E94DB
:101A000053200E94A32084E00E94B41F2696E5E99B
:101A1000F3E0FA93EA93EDE7F5E0FA93EA93E091C5
:101A20009003F0919103FA93EA93A0E0B0E067D8B5
:101A30000E94D82010F4303009F07BC0E5E9F3E0D3
:101A4000FF93EF93E5E9F3E0FA93EA93EDE7F5E02E
:101A5000FA93EA93E0919003F0919103FA93EA9359
:101A6000A1E0B0E04CD8AF91BF91AE0FBF1F11966F
:101A70000E94D91F309749F4ABE8B5E00E941D1EC3
:101A8000A1E3B0E0E0E00E94C720E5E9F3E0FF93C6
:101A9000EF93E5E9F3E0FA93EA93EDE7F5E0FA93E3
:101AA000EA93E0919003F0919103FA93EA93A1E015
:101AB000B0E025D8AF91BF91AE0FBF1F11960E9425
:101AC000D91FE130A0E0FA0749F4A7EAB5E00E9487
:101AD0001D1EA1E3B0E0E1E00E94C720E5E9F3E0CC
:101AE000FF93EF93E5E9F3E0FA93EA93EDE7F5E08E
:101AF000FA93EA93E0919003F0919103FA93EA93B9
:101B0000A1E0B0E00E947F05AF91BF91AE0FBF1F73
:101B100011960E94D91FE230A0E0FA0749F4A8EC20
:101B2000B5E00E941D1EA1E3B0E0E2E00E94C720E4
:101B300031E0E5E9F3E0FA93EA93E7EFF5E0FA93B1
:101B4000EA93E0919003F0919103FA93EA93A0E075
:101B5000B0E00E947F050E94D82010F4303009F0D8
:101B600033C0E5E9F3E0FF93EF93E5E9F3E0FA939F
:101B7000EA93E7EFF5E0FA93EA93E0919003F091AE
:101B80009103FA93EA93A1E0B0E00E947F05AF9140
:101B9000BF91AE0FBF1F11960E94D91FAEE2B0E0F9
:101BA0000E94C72031E0E7E0F6E0FA93EA93AEE264
:101BB000B0E00E94B320FF27662777270E94A3206A
:101BC00084E00E94B41F2696E5E9F3E0FA93EA93D5
:101BD000EAE3F6E0FA93EA93E0919003F09191033F
:101BE000FA93EA93A0E0B0E00E947F050E94D8201B
:101BF00010F4303009F033C0E5E9F3E0FF93EF93E0
:101C0000E5E9F3E0FA93EA93EAE3F6E0FA93EA937C
:101C1000E0919003F0919103FA93EA93A1E0B0E090
:101C20000E947F05AF91BF91AE0FBF1F11960E941A
:101C3000D91FABE2B0E00E94C72031E0EAE4F6E051
:101C4000FA93EA93ABE2B0E00E94B320FF27662745
:101C500077270E94A32084E00E94B41F2696E5E91E
:101C6000F3E0FA93EA93E5E7F6E0FA93EA93E0917A
:101C70009003F0919103FA93EA93A0E0B0E00E9400
:101C80007F050E94D82010F4303009F033C0E5E918
:101C9000F3E0FF93EF93E5E9F3E0FA93EA93E5E7E6
:101CA000F6E0FA93EA93E0919003F0919103FA93AE
:101CB000EA93A1E0B0E00E947F05AF91BF91AE0F23
:101CC000BF1F11960E94D91FADE2B0E00E94C7204D
:101CD00031E0E3E8F6E0FA93EA93ADE2B0E00E9487
:101CE000B320FF27662777270E94A32084E00E9465
:101CF000B41F2696E5E9F3E0FA93EA93E8EAF6E002
:101D0000FA93EA93E0919003F0919103FA93EA93A6
:101D1000A0E0B0E00E947F050E94D82010F430308F
:101D200009F033C0E5E9F3E0FF93EF93E5E9F3E071
:101D3000FA93EA93E8EAF6E0FA93EA93E0919003E3
:101D4000F0919103FA93EA93A1E0B0E00E947F053D
:101D5000AF91BF91AE0FBF1F11960E94D91FA0E394
:101D6000B0E00E94C72031E0E6EBF6E0FA93EA9398
:101D7000A0E3B0E00E94B320FF27662777270E94E8
:101D8000A32084E00E94B41F2696E5E9F3E0FA93CD
:101D9000EA93E7EFF6E0FA93EA93E0919003F0918B
:101DA0009103FA93EA93A0E0B0E00E947F050E94BD
:101DB000D82010F4303009F033C0E5E9F3E0FF93A8
:101DC000EF93E5E9F3E0FA93EA93E7EFF6E0FA93AD
:101DD000EA93E0919003F0919103FA93EA93A1E0E2
:101DE000B0E00E947F05AF91BF91AE0FBF1F11966B
:101DF0000E94D91FA9E3B0E00E94C72031E0E2E0D1
:101E0000F7E0FA93EA93A9E3B0E00E94B320FF273A
:101E1000662777270E94A32084E00E94B41F26969D
:101E2000E5E9F3E0FA93EA93E5E2F7E0FA93EA935F
:101E3000E0919003F0919103FA93EA93A0E0B0E06F
:101E40000E947F050E94D82010F4303009F033C082
:101E5000E5E9F3E0FF93EF93E5E9F3E0FA93EA9322
:101E6000E5E2F7E0FA93EA93E0919003F0919103B1
:101E7000FA93EA93A1E0B0E00E947F05AF91BF9191
:101E8000AE0FBF1F11960E94D91FAFE2B0E00E94B3
:101E9000C72031E0E3E3F7E0FA93EA93AFE2B0E082
:101EA0000E94B320FF27662777270E94A32084E0A3
:101EB0000E94B41F2696E5E9F3E0FA93EA93EEE573
:101EC000F7E0FA93EA93E0919003F0919103FA938B
:101ED000EA93A0E0B0E00E947F050E94D82010F4B1
:101EE000303009F033C0E5E9F3E0FF93EF93E5E923
:101EF000F3E0FA93EA93EEE5F7E0FA93EA93E091E0
:101F00009003F0919103FA93EA93A1E0B0E00E946C
:101F10007F05AF91BF91AE0FBF1F11960E94D91FD1
:101F2000AAE2B0E00E94C72031E0EBE6F7E0FA93C6
:101F3000EA93AAE2B0E00E94B320FF276627772742
:101F40000E94A32084E00E94B41F2696E5E9F3E0F6
:101F5000FA93EA93E1E8F7E0FA93EA93E0919003C9
:101F6000F0919103FA93EA93A0E0B0E00E947F051C
:101F70000E94D82010F4303009F002C0303009F04F
:101F80002EC1E5E9F3E0FF93EF93E5E9F3E0FA937F
:101F9000EA93E6E8F7E0FA93EA93E0919003F09190
:101FA0009103FA93EA93A1E0B0E00E947F05AF911C
:101FB000BF91AE0FBF1F11960E94D91F0E94D8205B
:101FC0000CF5E5E9F3E0FF93EF93E5E9F3E0FA932D
:101FD000EA93E6E8F7E0FA93EA93E0919003F09150
:101FE0009103FA93EA93A1E0B0E00E947F05AF91DC
:101FF000BF91AE0FBF1F11960E94D91FA0E2B0E0A3
:102000000E94BF20E5E9F3E0FF93EF93E5E9F3E0F9
:10201000FA93EA93EDE8F7E0FA93EA93E0919003FC
:10202000F0919103FA93EA93A1E0B0E00E947F055A
:10203000AF91BF91AE0FBF1F11960E94D91F0E9492
:10204000D8200CF5E5E9F3E0FF93EF93E5E9F3E041
:10205000FA93EA93EDE8F7E0FA93EA93E0919003BC
:10206000F0919103FA93EA93A1E0B0E00E947F051A
:10207000AF91BF91AE0FBF1F11960E94D91FA2E270
:10208000B0E00E94BF20E5E9F3E0FF93EF93E5E9BC
:10209000F3E0FA93EA93E4E9F7E0FA93EA93E09144
:1020A0009003F0919103FA93EA93A1E0B0E00E94CB
:1020B0007F05AF91BF91AE0FBF1F11960E94D91F30
:1020C0000E94D8200CF5E5E9F3E0FF93EF93E5E9F2
:1020D000F3E0FA93EA93E4E9F7E0FA93EA93E09104
:1020E0009003F0919103FA93EA93A1E0B0E00E948B
:1020F0007F05AF91BF91AE0FBF1F11960E94D91FF0
:10210000A4E2B0E00E94BF20E5E9F3E0FF93EF9383
:10211000E5E9F3E0FA93EA93EBE9F7E0FA93EA935F
:10212000E0919003F0919103FA93EA93A1E0B0E07B
:102130000E947F05AF91BF91AE0FBF1F11960E9405
:10214000D91F0E94D8200CF5E5E9F3E0FF93EF9347
:10215000E5E9F3E0FA93EA93EBE9F7E0FA93EA931F
:10216000E0919003F0919103FA93EA93A1E0B0E03B
:102170000E947F05AF91BF91AE0FBF1F11960E94C5
:10218000D91FA6E2B0E00E94C720E5EAF7E0FA9383
:10219000EA93A0E2B0E00E94AF200E9459200E9482
:1021A000A320A2E2B0E00E94AF200E9459200E942A
:1021B000A320A4E2B0E00E94AF200E9459200E9418
:1021C000A320A6E2B0E00E94B320FF27662777276E
:1021D0000E94A32080E10E94B41F629631E0E5E9ED
:1021E000F3E0FA93EA93E0EEF7E0FA93EA93E091F2
:1021F0009003F0919103FA93EA93A0E0B0E00E947B
:102200007F050E94D82010F4303009F03BC031E047
:10221000E1E06E2E5524A5E0B0E0E0E00E94C7208A
:10222000A8E0B0E0E0E0F0E00E94BF20AAE0B0E06B
:102230000E94BF20ACE0B0E00E94BF20AEE0B0E062
:102240000E94BF20A0E1B0E00E94BF20A2E1B0E068
:102250000E94BF20A4E1B0E00E94BF20A6E1B0E050
:102260000E94BF20A8E1B0E00E94BF20AAE1B0E038
:102270000E94BF20ACE1B0E00E94BF20AEE1B0E020
:102280000E94BF20E5E9F3E0FA93EA93EAEEF7E073
:10229000FA93EA93E0919003F0919103FA93EA9311
:1022A000A0E0B0E00E947F052E0FE5E9F3E0FA938D
:1022B000EA93E3EFF7E0FA93EA93E0919003F09169
:1022C0009103FA93EA93A0E0B0E00E947F052E0FFD
:1022D000E5E9F3E0FA93EA93EFEFF7E0FA93EA9394
:1022E000E0919003F0919103FA93EA93A0E0B0E0BB
:1022F0000E947F052E0FE5E9F3E0FA93EA93E0E10F
:10230000F8E0FA93EA93E0919003F0919103FA9345
:10231000EA93A0E0B0E00E947F052E0FE5E9F3E02C
:10232000FA93EA93E9E1F8E0FA93EA93E0919003F3
:10233000F0919103FA93EA93A0E0B0E00E947F0548
:102340002E0FE5E9F3E0FA93EA93E2E2F8E0FA937C
:10235000EA93E0919003F0919103FA93EA93A0E05D
:10236000B0E00E947F052E0FE5E9F3E0FA93EA93CF
:10237000E4E3F8E0FA93EA93E0919003F09191039B
:10238000FA93EA93A0E0B0E00E947F052E0FE5E902
:10239000F3E0FA93EA93ECE3F8E0FA93EA93E0913E
:1023A0009003F0919103FA93EA93A0E0B0E00E94C9
:1023B0007F052E0FE5E9F3E0FA93EA93E7E4F8E00E
:1023C000FA93EA93E0919003F0919103FA93EA93E0
:1023D000A0E0B0E00E947F052E1B303011F42630C3
:1023E00008F4C3C32830A9F4E5E9F3E0FA93EA93CB
:1023F000E4E3F8E0FA93EA93E0919003F09191031B
:10240000FA93EA93A0E0B0E00E947F050E94D820F2
:1024100008F0F2C0E0E0F0E0E0934803F0934903F5
:10242000E0938E03F0938F03E0938803F093890386
:10243000EFEFF0E0E0938A03F0938B03E5E9F3E03C
:10244000FA93EA93E4E3F8E0FA93EA93E0919003D5
:10245000F0919103FA93EA93A1E0B0E00E947F0526
:102460008F01E5E9F3E0E00FF11FA081AD3511F038
:10247000AD3709F4B3C0E5E9F3E0E00FF11FA08147
:10248000AB3519F0AC3209F0A6C0A5E9B3E0F8010C
:102490003196AE0FBF1FAC91AE3649F0A5E9B3E05F
:1024A000F8013196AE0FBF1FAC91AE3409F493C062
:1024B000A8E4B3E0ED91FD913196FE93EE93E5E94A
:1024C000F3E0E00FF11F3196DF010E94D91F309732
:1024D00061F4E5E9F3E0E00FF11F3196DF010E94BE
:1024E000D91FE83CA0E0FA07C4F4ACE4B3E0E09103
:1024F0004803F0914903EE0FFF1FEA0FFB1FFF9304
:10250000EF93E5E9F3E0E00FF11F3196DF010E9460
:10251000D91FAF91BF91ED93FC9300908E03109063
:102520008F03ACE4B3E0E0914803F0914903EE0F70
:10253000FF1FAE0FBF1FED91FD91E00DF11DE09368
:102540008E03F0938F03ACE4B3E0E0914803F09185
:102550004903EE0FFF1FAE0FBF1FED91FD91DF018D
:10256000E0918803F0918903EA17FB0784F4ACE457
:10257000B3E0E0914803F0914903EE0FFF1FAE0F67
:10258000BF1FED91FD91E0938803F0938903ACE4C4
:10259000B3E0E0914803F0914903EE0FFF1FAE0F47
:1025A000BF1FED91FD91DF01E0918A03F0918B0354
:1025B000AE17BF0784F4ACE4B3E0E0914803F091B8
:1025C0004903EE0FFF1FAE0FBF1F0E949B20E09339
:1025D0008A03F0938B030F5F1F4F43CFA0918E03AD
:1025E000B0918F03E0914803F09149030E94882045
:1025F000E0938C03F0938D03E5E9F3E0FA93EA931B
:10260000EAEEF7E0FA93EA93E0919003F0919103F8
:10261000FA93EA93A0E0B0E00E947F050E94D820E0
:1026200008F0F2C0E0E0F0E0E0930203F09303036F
:10263000E0930403F0930503E0934403F093450310
:10264000EFEFF0E0E0934603F0934703E5E9F3E0B2
:10265000FA93EA93EAEEF7E0FA93EA93E0919003B3
:10266000F0919103FA93EA93A1E0B0E00E947F0514
:102670008F01E5E9F3E0E00FF11FA081AD3511F026
:10268000AD3709F4B3C0E5E9F3E0E00FF11FA08135
:10269000AB3519F0AC3209F0A6C0A5E9B3E0F801FA
:1026A0003196AE0FBF1FAC91AE3649F0A5E9B3E04D
:1026B000F8013196AE0FBF1FAC91AE3409F493C050
:1026C000A2E0B3E0ED91FD913196FE93EE93E5E942
:1026D000F3E0E00FF11F3196DF010E94D91F309720
:1026E00061F4E5E9F3E0E00FF11F3196DF010E94AC
:1026F000D91FE639A0E0FA07C4F4A6E0B3E0E09100
:102700000203F0910303EE0FFF1FEA0FFB1FFF937D
:10271000EF93E5E9F3E0E00FF11F3196DF010E944E
:10272000D91FAF91BF91ED93FC93009004031090DB
:102730000503A6E0B3E0E0910203F0910303EE0F7E
:10274000FF1FAE0FBF1FED91FD91E00DF11DE09356
:102750000403F0930503A6E0B3E0E0910203F091D7
:102760000303EE0FFF1FAE0FBF1FED91FD91DF01C1
:10277000E0914403F0914503EA17FB0784F4A6E0D7
:10278000B3E0E0910203F0910303EE0FFF1FAE0FE1
:10279000BF1FED91FD91E0934403F0934503A6E044
:1027A000B3E0E0910203F0910303EE0FFF1FAE0FC1
:1027B000BF1FED91FD91DF01E0914603F0914703CA
:1027C000AE17BF0784F4A6E0B3E0E0910203F091F6
:1027D0000303EE0FFF1FAE0FBF1F0E949B20E0936D
:1027E0004603F09347030F5F1F4F43CFA0910403AD
:1027F000B0910503E0910203F09103030E94882049
:10280000E0934203F0934303E5E9F3E0FA93EA939C
:10281000E5E5F8E0FA93EA93E0919003F0919103F3
:10282000FA93EA93A0E0B0E00E947F050E94D820CE
:10283000F8F4E5E9F3E0FF93EF93E5E9F3E0FA93C9
:10284000EA93E5E5F8E0FA93EA93E0919003F091DA
:102850009103FA93EA93A1E0B0E00E947F05AF9163
:10286000BF91AE0FBF1F12960E94D91F4E2F5F5F00
:10287000E5E9F3E0FA93EA93EFE5F8E0FA93EA93F7
:10288000E0919003F0919103FA93EA93A0E0B0E015
:102890000E947F050E94D820F8F4E5E9F3E0FF9359
:1028A000EF93E5E9F3E0FA93EA93EFE5F8E0FA93C2
:1028B000EA93E0919003F0919103FA93EA93A1E0F7
:1028C000B0E00E947F05AF91BF91AE0FBF1F12967F
:1028D0000E94D91FEE835F5FE5E9F3E0FA93EA9384
:1028E000E7E6F8E0FA93EA93E0919003F091910320
:1028F000FA93EA93A0E0B0E00E947F050E94D820FE
:10290000F8F4E5E9F3E0FF93EF93E5E9F3E0FA93F8
:10291000EA93E7E6F8E0FA93EA93E0919003F09106
:102920009103FA93EA93A1E0B0E00E947F05AF9192
:10293000BF91AE0FBF1F12960E94D91FEF835F5F3A
:10294000533019F5AEE2B0E00E94B320E41729F04D
:10295000E42FAEE2B0E00E94C720ABE2B0E00E94FC
:10296000B320AE81EA1729F0EE81ABE2B0E00E941D
:10297000C720ADE2B0E00E94B320AF81EA1729F092
:10298000EF81ADE2B0E00E94C720E5E9F3E0FF93FC
:10299000EF93E5E9F3E0FA93EA93E3EFF7E0FA93D4
:1029A000EA93E0919003F0919103FA93EA93A1E006
:1029B000B0E00E947F05AF91BF91AE0FBF1F12968E
:1029C0000E94D91FE0930003F0930103E5E9F3E0CF
:1029D000FF93EF93E5E9F3E0FA93EA93ECE3F8E091
:1029E000FA93EA93E0919003F0919103FA93EA93BA
:1029F000A1E0B0E00E947F05AF91BF91AE0FBF1F75
:102A000012960E94D91FE0934A03F0934B03E5E925
:102A1000F3E0FF93EF93E5E9F3E0FA93EA93EFEF46
:102A2000F7E0FA93EA93E0919003F0919103FA931F
:102A3000EA93A1E0B0E00E947F05AF91BF91AE0F95
:102A4000BF1F12960E94D91FE0938905E5E9F3E0C4
:102A5000FF93EF93E5E9F3E0FA93EA93E0E1F8E01E
:102A6000FA93EA93E0919003F0919103FA93EA9339
:102A7000A1E0B0E00E947F05AF91BF91AE0FBF1FF4
:102A800012960E94D91FE150E0938A05E5E9F3E030
:102A9000FF93EF93E5E9F3E0FA93EA93E9E1F8E0D5
:102AA000FA93EA93E0919003F0919103FA93EA93F9
:102AB000A1E0B0E00E947F05AF91BF91AE0FBF1FB4
:102AC00012960E94D91FE0938C05E5E9F3E0FF938D
:102AD000EF93E5E9F3E0FA93EA93E2E2F8E0FA93A0
:102AE000EA93E0919003F0919103FA93EA93A1E0C5
:102AF000B0E00E947F05AF91BF91AE0FBF1F12964D
:102B00000E94D91FACE3B0E00E947020DF01E09189
:102B10008E05F0918F05EA17FB0729F1E5E9F3E04F
:102B2000FF93EF93E5E9F3E0FA93EA93E2E2F8E04A
:102B3000FA93EA93E0919003F0919103FA93EA9368
:102B4000A1E0B0E00E947F05AF91BF91AE0FBF1F23
:102B500012960E94D91FACE3B0E00E947020E0936F
:102B60008E05F0938F050E94D105E0919003F091BE
:102B7000910331968F01043FE1E01E0748F4E5E937
:102B8000F3E0E00FF11FA0E0A0830F5F1F4FF3CF32
:102B90000E944420289608950A921A92FA926A9303
:102BA0007A938A939A93AA93BA93EA93FA93EFB794
:102BB000EA931A930A931091C0000091C600E12F86
:102BC000EC71E1F50B3741F4E0E0E0939003E09322
:102BD0009103E1E0E09392030D3721F4A091920379
:102BE000A13009F017C0E5E9F3E0A0919003B0919E
:102BF0009103EA0FFB1F0083E0E0E09392030E9441
:102C00000107E1E0E41531F4E0E0F0E0E093900545
:102C1000F0939105A0919203A13081F4E5E9F3E0EE
:102C2000A0919003B0919103EA0FFB1F0083A0E9EC
:102C3000B3E0ED91FD913196FE93EE9309911991D8
:102C4000E991EFBFF991E991B991A9919991899190
:102C500079916991F990199009901895EA93FA93EE
:102C6000EFB7EA93E1E0F0E09E0EAF1EE991EFBF0F
:102C7000F991E99118950A921A92FA926A937A93C5
:102C80008A939A93AA93BA93EA93FA93EFB7EA9343
:102C90001A9310E0A7E3B0E00E94B3200E2EA8E341
:102CA000B0E00E94B320E015D1F0E0919E05EF5F07
:102CB000E0939E05A0919E05AE3189F4A7E3B0E0B4
:102CC000E0E00E94C720A8E3B0E00E94C720E093A4
:102CD0009E0580926600AFE6B8E00E941D1EE1E00E
:102CE000E615D9F5A7E2B0E00E94B320E51511F58D
:102CF00055246624EFE7E8BD11E0A9E3B0E00E94A7
:102D0000B320E117B0F0E12FA6E0B0E0F0E0EE0F65
:102D1000FF1FAE0FBF1F0E94AF200E94D82038F4C3
:102D2000A5E0B0E00E94B320EF5F0E94C7201F5FC4
:102D3000E4CF01C05394EAE0F0E0E915FA0560F44D
:102D4000E72DA6E0B0E0F0E0EE0FFF1FAE0FBF1FD3
:102D5000E92DFA2D0E94BF201AC0E72DAFE9B5E09A
:102D6000F0E0EE0FFF1FEA0FFB1F0F01E72DAFE9A9
:102D7000B5E0F0E0EE0FFF1FAE0FBF1FED91FD912C
:102D8000E90DFA1DF695E795D001ED93FC93992492
:102D9000AA24E72DF0E0E130A0E0FA0729F4E2E010
:102DA000E0936B0073946BC0E230A0E0FA0729F463
:102DB000E4E0E0936B00739462C0E330A0E0FA07B4
:102DC00029F4E8E0E0936B00739459C0E430A0E08C
:102DD000FA0729F4E0E1E0936B00739450C0E5300A
:102DE000A0E0FA0729F4E0E2E0936B00739447C097
:102DF000E630A0E0FA0729F4E0E4E0936B00739476
:102E00003EC0E730A0E0FA0729F4E0E8E0936B0069
:102E1000739435C0E830A0E0FA0741F4E0E0E093B5
:102E20006B00E4E0E0936D00739429C0E930A0E00A
:102E3000FA0729F4E8E0E0936D00739420C0EA30CB
:102E4000A0E0FA0741F4E0E0E0936D00E0E2E093F7
:102E50006C00739414C0EB30A0E0FA0729F4E0E1B1
:102E6000E0936C0073940BC0EC30A0E0FA0739F4E7
:102E7000E0E0E0936C00E1E0E0936B007E2E5C9B71
:102E800002C05C9801C05C9AA5E3B0E00E94B32048
:102E9000E13061F4A0919005B0919105E0918E052B
:102EA000F0918F053597AE17BF070CF005C05E9BFC
:102EB00002C05E9801C05E9AA5E3B0E00E94B32014
:102EC000E13061F4A0919005B0919105E0918E05FB
:102ED000F0918F053597EA17FB0709F001C05E985E
:102EE000A0E9B5E0ED91FD913196FE93EE93E1E01E
:102EF000E61511F4E7B554C1E0918A05E030D9F444
:102F0000ADE2B0E00E94B320A0918905EA1710F469
:102F1000BB2706C0ADE2B0E00E94B320F0E0DF01C5
:102F2000E7B5F0E00E947020DF01E4E6F0E00E94E7
:102F30008820E8BD36C1E0918B05EF5FE0938B05FB
:102F4000E150A6E2B0E00E94B320A0918B05EA1701
:102F500009F027C1E0E0E0938B05E0919205F09144
:102F60009305E0939405F0939505D0929205E09235
:102F70009305A0914403B0914503E0910003F091C3
:102F80000103AE1BBF0BDA2EEB2EA0914803B091CC
:102F900049030E94DC20CCF4E0918803F09189037E
:102FA000A0914A03B0914B03EA1BFB0BDE16EF0620
:102FB00064F4A0918803B0918903E0914A03F091F1
:102FC0004B03AE1BBF0BDA2EEB2EA0E2B0E00E944B
:102FD000AF200F01A0919205B0919305ED2DFE2D2C
:102FE000EA1BFB0BD0010E947020E0939605F09342
:102FF0009705A4E2B0E00E94AF20DF01ED2DFE2D89
:103000000E947020E0939A05F0939B05A2E2B0E045
:103010000E94AF200F01E0919205F0919305EE0F11
:10302000FF1FDF01ED2DFE2DEA1BFB0BA091940588
:10303000B0919505EA0FFB1FD0010E947020E0932C
:103040009805F0939905E0919A05F0919B05A09160
:103050009605B0919705EA0FFB1FA0919805B091D6
:103060009905AE0FBF1FE4E6F0E00E948820E093D0
:103070009C05F0939D05E7B5F0E0A0919C05B0910B
:103080009D050E947020DF01EFEFF0E00E94882094
:10309000E0939C05F0939D05E7B5F0E0DF01E8B50E
:1030A000F0E00E94A820EA1BFB0BA0919C05B091C8
:1030B0009D05EA17FB075CF4E7B5F0E0DF01E8B532
:1030C000F0E0AE1BBF0BA0939C05B0939D05E8B547
:1030D000F0E0A0919C05B0919D05AE0FBF1FBB23F2
:1030E0002AF4E0E0E0939C05E0939D05E8B5F0E06C
:1030F000A0919C05B0919D05EA0FFB1FBF01ABE2BB
:10310000B0E00E94B320F0E0DF01E7B5F0E00E94FC
:103110007020DF01E4E6F0E00E948820E617F70760
:1031200084F4ABE2B0E00E94B320F0E0DF01E7B549
:10313000F0E00E947020DF01E4E6F0E00E948820C9
:103140002FC0E8B5F0E0A0919C05B0919D05EA0F75
:10315000FB1FBF01ADE2B0E00E94B320F0E0DF0151
:10316000E7B5F0E00E947020DF01E4E6F0E00E94A5
:1031700088206E177F0784F4ADE2B0E00E94B32090
:10318000F0E0DF01E7B5F0E00E947020DF01E4E647
:10319000F0E00E94882004C0E8B5A0919C05EA0FE9
:1031A000E8BD3394E1E0F0E0BE0ECF1EAAE2B0E04D
:1031B0000E94B320E31531F4A9E2B0E00E94B320ED
:1031C000E13008F475C33324A9E2B0E00E94B320D3
:1031D000E13009F084C0EAE8F8E0FA93EA93E8B550
:1031E000FF27662777270E94A320E7B5FF276627DA
:1031F00077270E94A320E8B5A4E6EA9FF001DF014B
:10320000E7B5F0E00E9488200E9459200E94A32088
:10321000E0918A05FF27662777270E94A320E09187
:103220004603F09147030E9459200E94A320E09199
:103230004403F09145030E9459200E94A320E0918D
:103240000003F09101030E9459200E94A320E09105
:103250009C05F0919D050E9459200E94A320AAE29E
:10326000B0E00E94B320F0E0AB2DBC2D0E94752091
:10327000662777270E94A320A7E3B0E00E94B3202F
:103280000E9453200E94A32088E20E94B41FAA96A5
:10329000A0914803B09149030E94DC2004F5E3EFBC
:1032A000F8E0FA93EA93E0918A03F0918B030E948D
:1032B00059200E94A320E0918803F09189030E9485
:1032C00059200E94A320E0914A03F0914B030E94F1
:1032D00059200E94A3208CE00E94B41F2E96A9E2E0
:1032E000B0E00E94B320E43009F092C0EAE8F8E0D0
:1032F000FA93EA93E8B5FF27662777270E94A32071
:10330000E7B5FF27662777270E94A320E8B5A4E644
:10331000EA9FF001DF01E7B5F0E00E9488200E94FB
:1033200059200E94A320E0918A05FF27662777276E
:103330000E94A320E0914603F09147030E94592088
:103340000E94A320E0914403F09145030E9459207C
:103350000E94A320E0910003F09101030E945920F4
:103360000E94A320E0919C05F0919D050E945920A8
:103370000E94A320AAE2B0E00E94B320F0E0AB2DAF
:10338000BC2D0E947520662777270E94A320A7E303
:10339000B0E00E94B3200E9453200E94A32088E244
:1033A0000E94B41FAA96A0914803B09149030E94BD
:1033B000DC2004F5E3EFF8E0FA93EA93E0918A0366
:1033C000F0918B030E9459200E94A320E091880372
:1033D000F09189030E9459200E94A320E0914A03A2
:1033E000F0914B030E9459200E94A3208CE00E9480
:1033F000B41F2E96EDE1F9E0FA93EA93E5E9F3E0E4
:10340000662777270E94A32084E00E94B41F269697
:10341000A9E2B0E00E94B320E23009F0ECC0EAE893
:10342000F8E0FA93EA93E8B5FF27662777270E942A
:10343000A320E7B5FF27662777270E94A320E8B5DA
:10344000A4E6EA9FF001DF01E7B5F0E00E948820E2
:103450000E9459200E94A320E0918A05FF27662739
:1034600077270E94A320E0914603F09147030E9432
:1034700059200E94A320E0914403F09145030E944B
:1034800059200E94A320E0910003F09101030E94C3
:1034900059200E94A320E0919C05F0919D050E9477
:1034A00059200E94A320AAE2B0E00E94B320F0E0DD
:1034B000AB2DBC2D0E947520662777270E94A32084
:1034C000A7E3B0E00E94B3200E9453200E94A320F3
:1034D00088E20E94B41FAA96A0914803B0914903C4
:1034E0000E94DC2004F5E3EFF8E0FA93EA93E09120
:1034F0008A03F0918B030E9459200E94A320E0913F
:103500008803F09189030E9459200E94A320E09132
:103510004A03F0914B030E9459200E94A3208CE0A3
:103520000E94B41F2E96E1E2F9E0FA93EA93E0914B
:10353000A105F091A205662777270E94A320E091BC
:10354000A305F091A405662777270E94A320E091A8
:10355000A505F091A605662777270E94A320E09194
:10356000A705F091A805662777270E94A320E09180
:10357000A905F091AA05662777270E94A320E0916C
:10358000AB05F091AC05662777270E94A320E09158
:10359000AD05F091AE05662777270E94A320E09144
:1035A000AF05F091B005662777270E94A320E09130
:1035B000B105F091B205662777270E94A320E0911C
:1035C000B305F091B405662777270E94A320E09108
:1035D000B505F091B605662777270E94A320E091F4
:1035E000B705F091B805662777270E94A32080E3EE
:1035F0000E94B41FE296A9E2B0E00E94B320E3303B
:1036000009F054C1EAE8F8E0FA93EA93E8B5FF2735
:10361000662777270E94A320E7B5FF27662777272D
:103620000E94A320E8B5A4E6EA9FF001DF01E7B518
:10363000F0E00E9488200E9459200E94A320E0917F
:103640008A05FF27662777270E94A320E09146037B
:10365000F09147030E9459200E94A320E091440367
:10366000F09145030E9459200E94A320E09100039D
:10367000F09101030E9459200E94A320E0919C0533
:10368000F0919D050E9459200E94A320AAE2B0E07B
:103690000E94B320F0E0AB2DBC2D0E947520662760
:1036A00077270E94A320A7E3B0E00E94B3200E94E6
:1036B00053200E94A32088E20E94B41FAA96A091E2
:1036C0004803B09149030E94DC2004F5E3EFF8E0E1
:1036D000FA93EA93E0918A03F0918B030E945920B8
:1036E0000E94A320E0918803F09189030E94592051
:1036F0000E94A320E0914A03F0914B030E945920BD
:103700000E94A3208CE00E94B41F2E96E1E2F9E013
:10371000FA93EA93E091A105F091A2056627772735
:103720000E94A320E091A305F091A40566277727C6
:103730000E94A320E091A505F091A60566277727B2
:103740000E94A320E091A705F091A805662777279E
:103750000E94A320E091A905F091AA05662777278A
:103760000E94A320E091AB05F091AC056627772776
:103770000E94A320E091AD05F091AE056627772762
:103780000E94A320E091AF05F091B005662777274E
:103790000E94A320E091B105F091B205662777273A
:1037A0000E94A320E091B305F091B4056627772726
:1037B0000E94A320E091B505F091B6056627772712
:1037C0000E94A320E091B705F091B80566277727FE
:1037D0000E94A32080E30E94B41FE296EEE6F9E087
:1037E000FA93EA93A8E0B0E00E94AF20662777271B
:1037F0000E94A320AAE0B0E00E94AF2066277727AE
:103800000E94A320ACE0B0E00E94AF20662777279B
:103810000E94A320AEE0B0E00E94AF206627772789
:103820000E94A320A0E1B0E00E94AF206627772786
:103830000E94A320A2E1B0E00E94AF206627772774
:103840000E94A320A4E1B0E00E94AF206627772762
:103850000E94A320A6E1B0E00E94AF206627772750
:103860000E94A320A8E1B0E00E94AF20662777273E
:103870000E94A320AAE1B0E00E94AF20662777272C
:103880000E94A320ACE1B0E00E94AF20662777271A
:103890000E94A320AEE1B0E00E94AF206627772708
:1038A0000E94A32080E30E94B41FE296AAE0BBD14D
:1038B000A0918C05A13059F4A0919005B09191058B
:1038C000E0918E05F0918F05AE17BF070CF466C02E
:1038D000A0919005B0919105E0918E05F0918F0532
:1038E000EA17FB0719F4439AE0E4EBB9009090055E
:1038F00010909105AFE2B0E00E94B320F0E0A091FB
:103900008E05B0918F05EA0FFB1FE015F10519F444
:103910004398E0E0EBB96091900570919105AFE2BA
:10392000B0E00E94B320F0E0A0918E05B0918F0529
:10393000EA0FFB1F0F01A0E3B0E00E94B320F0E00C
:10394000E00DF11DE617F70719F4439AE0E4EBB92F
:103950006091900570919105AFE2B0E00E94B320B4
:10396000F0E0A0918E05B0918F05EA0FFB1F0F01CB
:10397000A0E3B0E00E94B320F0E0E00DF11D31962D
:10398000E617F70759F44398E0E0EBB9E0E0F0E020
:10399000E0939005F0939105E1E04E2E1991E991A5
:1039A000EFBFF991E991B991A99199918991799193
:1039B0006991F990199009901895E0E8E0936100F9
:1039C000E0E0E0936100E4B9E5B9E8E0E7B9E0E000
:1039D000E8B9E0E7EAB9E0E5EBB9E1E3E4BDE9E045
:1039E000E5BDE0E0E6BDE0938000ECE0E09381001F
:1039F000E0E0E0938500E0938400E0938700E093AB
:103A00008600EAE7E0938900E1E1E0938800E0E0E6
:103A1000E0938B00E0938A00E093B600E093B0005F
:103A2000E093B100E093B200E093B300E093B40000
:103A3000E0936E00E2E0E0936F00E1E0E09370005D
:103A4000E0E0E0936900EDBBE7E0E0936800E0E0D0
:103A5000E0936B00E0936C00E0936D00E7E0EBBB5C
:103A6000E0E0E093C000E8E9E093C100E6E0E09325
:103A7000C200E0E0E093C500E3E3E093C400E0E8C7
:103A8000E0BFE0E0E0937F00E9E3E0937E00E0E662
:103A9000E0937C00E6E8E0937A00E0E0E0937B00CE
:103AA000ECBDE093BC007894A8E2B0E00E94B320A3
:103AB000E73409F47DC0A0E2B0E0E0E2F3E00E9468
:103AC000BF20A2E2B0E0E8E7F0E00E94BF20A4E25D
:103AD000B0E0E4E6F0E00E94BF20A6E2B0E0EAE059
:103AE0000E94C720A7E2B0E0EEE10E94C720A8E252
:103AF000B0E0E7E40E94C720A9E2B0E0E3E00E9462
:103B0000C720AAE2B0E0E4E00E94C720ACE2B0E047
:103B1000E1E00E94C720ADE2B0E0EFE00E94C720E4
:103B2000AEE2B0E0EEE10E94C720AFE2B0E0E5E037
:103B30000E94C720A0E3B0E0EEE10E94C720ADE202
:103B4000B0E0EAE00E94C720AEE2B0E0E4E10E940B
:103B5000C720A1E3B0E0E1E00E94C720A2E3B0E00B
:103B6000E0E00E94C720A3E3B0E00E94C720A4E3E6
:103B7000B0E00E94C720A5E3B0E0E1E00E94C720CA
:103B8000A6E3B0E0E4E10E94C720ABE2B0E0E4E6E7
:103B90000E94C720A9E3B0E0ECE00E94C720A7E3A1
:103BA000B0E0EEEF0E94C720A8E3B0E00E94C7207B
:103BB000A4E3B0E00E94B320E13031F4E1E2E4BDDF
:103BC000E9E0E5BDE0E0E6BDA5E3B0E00E94B3209A
:103BD000E03009F45E98AEE2B0E00E94B320E093DA
:103BE0008905A6E3B0E00E94B320F0E0A0EABFE0C0
:103BF0000E948820E7BDA0918905BB27E7B5F0E0CA
:103C00000E947020DF01E4E6F0E00E948820E8BD19
:103C100080906600A7E3B0E00E94B320E80DE09337
:103C20006600FFCFFFCF1A931A2FE091C000E07219
:103C3000E1F31093C600199108950E943F209D0161
:103C4000F9012F5F3F4FE4911E2FE03019F0A12FB3
:103C5000EADFF6CFAAE0E7DF0E9446202496089527
:103C60000E943F208D013C81A32FDDDFD801ED9123
:103C7000FD913196FE93EE930E944620259608957D
:103C8000BA93AA9326970E943D2010E0AC85BD858B
:103C9000E0E0F0E0ED93FC93EA89FB893196EA8B52
:103CA000FB8B3197E4912E2FE03009F455C1E12FC1
:103CB000E03059F4253211F411E006C02A93AD85A5
:103CC000BE85EF85F889099546C1E130C9F42532F2
:103CD00039F42A93AD85BE85EF85F88909953AC1F7
:103CE00012E040E000E02D3211F401E034C12B324B
:103CF00011F44BE230C1203211F440E22CC102C079
:103D0000E23039F450E013E0203311F4006823C1AD
:103D100003C0E33009F01FC1203310F02A3308F04C
:103D200007C0AAE05A9F502DE22FE0535E0F13C147
:103D3000E22FE33669F4E889F9893497E88BF98B47
:103D4000A481AA93AD85BE85EF85F889099502C146
:103D5000E33791F4E889F9893497E88BF98BA889DE
:103D6000B9891496ED91FD91EE83FF83AE81BF81F9
:103D70000E9424201E2F14C0E037B1F4E889F9898D
:103D80003497E88BF98BA889B9891496ED91FD9148
:103D9000EE83FF83AE81BF810E9430201E2F08601A
:103DA00002600F7730E042C0E43611F0E93611F4DA
:103DB000046002C0E53731F4EAE7F0E0EE83FF8308
:103DC00015E00CC0E83511F4086003C0E83709F0CD
:103DD000C1C0E4E8F0E0EE83FF8314E002FF1AC004
:103DE000E889F9893497E88BF98BA889B989149601
:103DF000ED91FD91EA87FB87AB85AA232AF40E9407
:103E00004F20EA87FB874DE2403011F01F5F01C071
:103E10000B7F0CC0E889F9893497E88BF98BA88966
:103E2000B98914960E949B20EA87FB8700FD15C084
:103E3000151798F407FF08C002FF04C00B7F242F5A
:103E4000115001C020E301C020E22A93AD85BE8558
:103E5000EF85F88909955150EBCF312F01FF1BC039
:103E60003030C1F003FF06C0EE81FF812591EE8363
:103E7000FF8305C0AE81BF812D91AE83BF832A939E
:103E8000AD85BE85EF85F8890995503009F0515010
:103E90003150E6CF52C020E3EE81FF810E949F2087
:103EA000E887F987EE81FF813296EE83FF83E8850C
:103EB000F985AA85BB85AE17BF0750F02F5FA8858F
:103EC000B985EA85FB85EA1BFB0BEA87FB87EFCF09
:103ED0002A3328F003FF02C0295F01C0295D04FDD9
:103EE0001DC0213320F4A885B985119709F409C0B4
:103EF000531710F000FF01C01AC020E207FF0EC0E8
:103F000020E3006102FF0AC00B7F4A93AD85BE85A6
:103F1000EF85F8890995503009F051502A93AD8505
:103F2000BE85EF85F8890995503009F05150315020
:103F3000A885B985129708F0AECF00FF0BC05030AE
:103F400049F05150E0E2EA93AD85BE85EF85F889EE
:103F50000995F5CF10E0A0CEAC85BD85ED91FD9122
:103F60000E94442064960895FF92F82E26971A9393
:103F70000A93DE0114960E944B208D01E0E0EC8351
:103F8000ED83EE83EF83DE0118960E944B20ED91C6
:103F9000FD91FA93EA931A930A93E0E3FEE1FA9310
:103FA000EA93DE0118966CDE198108812896FF904D
:103FB0000895BA93AA93B981A881EC918A2FAE2F64
:103FC0000E941920A82FEE2311F01196F6CFE89445
:103FD000EC91ED3211F4689402C0EB3209F41196C1
:103FE00066277727EC918A2FAE2F0E941020A82FEA
:103FF000EE2379F0FB01660F771F660F771F6E0FB8
:104000007F1F660F771FED91FF27E0536E0F7F1F15
:10401000E9CFFB011EF4E095F095319622960895C4
:10402000AA93E1E0F991F03310F0FA3308F0EE27AB
:104030000895AA93E1E0F991F03229F0F93010F0F7
:10404000FE3008F0EE270895BA93AA93A991B9918A
:10405000EE27FF276D91662311F03196FBCF08956F
:10406000BA93AA93AA27BB27E991F991059000205A
:1040700011F01196FBCFFD0108955A934A933A939C
:104080002A931A930A9308955D814C813B812A817A
:104090001981088108950024AF0DB01D0895F19590
:1040A000E195F0400895FE2FFF0FFF0B6F2F7F2F3C
:1040B00008956F2F660F660B762F0895EA17E1E0DB
:1040C00009F0EE270895EA17E1E00CF0EE270895D5
:1040D000FA9FF02DEB9FF00DEA9FE02DF10D089572
:1040E0001CD0F6DF0EF4DBDF08950024112490E1EC
:1040F000AA0FBB1F001C111C0E1A1F0A18F40E0E6B
:104100001F1E01C0A1609A9599F7FD01D001089585
:1041100004D0EBDF0EF4C3DF0895E894F7FF02C08C
:10412000BEDF6894B7FF06C0B195A195B04000F816
:10413000039400FA0895ED91FC911197089505906C
:10414000F491E02D08957A936A93FA93EA9308958F
:104150001B2EBF2FF12D1A2EAE2FE12D0895119693
:1041600002D0FE2F1197F999FECFFF93FFB7F89475
:10417000A1BDB2BDF89AE0B5FFBFFF91089507D089
:104180001196EF93EF2F03D0EF9111970895F99BBC
:1041900002C0A895FCCF9FB7F894A1BDB2BDF89A14
:1041A00080B5E81719F0E0BDFA9AF99A9FBF089513
:1041B00000240E160F06089500240A160B06089513
:00000001FF
